:1000000023C100000C94E22F0C940D300C94383076
:100010000C9463300C948E300C94B9300C94E43012
:100020000C940F3142C1000040C100003EC10000ED
:100030003CC100003AC1000038C1000036C10000D8
:1000400034C1000032C1000030C100002EC10000E8
:100050002CC100002AC1000028C100000C943A31D4
:1000600024C100000C94A7330C94DD331EC10000A2
:100070001CC100001AC1000018C1000016C1000018
:1000800014C1000012C1000010C100000EC1000028
:100090000C9433340C94693408C1000006C100008C
:1000A00004C1000002C1000000C10000FEC0000049
:1000B000FCC00000FAC00000F8C00000F6C000005C
:1000C000F4C00000F2C000000C94FC290C94BF3472
:1000D0000C94F534EAC000000C944B350C94813537
:1000E000E4C0000007634236B79BD8A71A396856A8
:1000F00018AEBAAB558C1D3CB7CC5763BD6DEDFD4A
:10010000753EF6177231BF000000803F0800000006
:10011000BE922449123EABAAAA2ABECDCCCC4C3EFC
:1001200000000080BEABAAAAAA3E00000000BF00EB
:100130000000803F0000000000084178D3BB4387E7
:10014000D1133D190E3CC3BD4282AD2B3E68EC82FB
:1001500076BED98FE1A93E4C80EFFFBE01C4FF7F80
:100160003F0000000000010210202008081020407D
:10017000102040800201020108040201010204086B
:1001800010204080804020100804020180040201F9
:100190008040201008040201080402010102040842
:1001A000102040800102040810204080050505054C
:1001B000070508080808020202020A0A08080404DF
:1001C000040401010101010101010303030303030D
:1001D0000303040707070C0C0C0C0C0C0C0C02029C
:1001E000020206060606060606060B0B0B0B0B0B99
:1001F0000B0B000020002300260029002C002F00FC
:100200003200000100000301060109010000220084
:10021000250028002B002E003100340002010000D0
:10022000050108010B0100002100240027002A001D
:100230002D003000330001010000040107010A0114
:10024000063492341E35AA3511241FBECFEFD1E2F9
:10025000DEBFCDBF00E00CBF13E0A0E0B2E0EAEFEC
:10026000FCE600E00BBF02C007900D92A232B1077E
:10027000D9F729E0A2E2B3E001C01D92A334B2078E
:10028000E1F711E0C4E2D1E000E006C021970109E6
:10029000802FFE010E944A36C032D10780E0080755
:1002A000A9F70E94022B0C947B36AACEFC01A781F1
:1002B000B0858C9191858923A481B5819C914081E1
:1002C0005181628173812681922359F081110BC083
:1002D0004F5F5F4F6F4F7F4F4083518362837383C4
:1002E00008958111F5CF4150510961097109F4CF89
:1002F00083E293E0DBCF8EE293E0D8CF89E393E013
:10030000D5CF84E493E0D2CFFC01A481B5818C9158
:1003100096818923A781B0859C914081518162811A
:1003200073812185922359F0882359F04F5F5F4FE5
:100330006F4F7F4F40835183628373830895882377
:10034000A9F34150510961097109F4CF83E293E0A7
:10035000DBCF8EE293E0D8CF89E393E0D5CF84E47E
:1003600093E0D2CF0F931F93CF93DF93D82FC62F55
:100370008A01A09122038BE0A89FD0011124AD5DDA
:10038000BC4F1D921D921D921C92139781E01A96EC
:100390008C931A978D2F90E0FC01EA59FE4FE4915F
:1003A0001696EC931697FC01E455FE4FE491F0E0AD
:1003B000EE0FFF1FEE50FE4F8591949115969C9382
:1003C0008E931497862F90E0FC01EA59FE4FE4913A
:1003D0001996EC931997FC01E455FE4FE491F0E077
:1003E000EE0FFF1FEE50FE4F8591949118969C934F
:1003F0008E93179760E08D2F0E94413260E08C2F22
:100400000E94413280912203813009F43FC0A8F05C
:10041000823009F462C0833009F486C080912203DF
:1004200091E0980F90932203F801808390E080E0A0
:10043000DF91CF911F910F91089580E0D23049F064
:1004400081E0D33031F08EEE8D0F8430D8F487E127
:100450008D1B41E050E068E771E00E94692F80E069
:10046000C23049F081E0C33031F08EEE8C0F843021
:1004700058F487E18C1B41E050E066EA71E00E948D
:10048000692FCCCF8FEFE5CF8FEFF5CF80E0D23063
:1004900049F081E0D33031F08EEE8D0F8430C8F416
:1004A00087E18D1B41E050E06BE771E00E94692F0E
:1004B00080E0C23049F081E0C33031F08EEE8C0F25
:1004C000843048F487E18C1B41E050E069EA71E038
:1004D000D6CF8FEFE7CF8FEFF7CF80E0D23049F064
:1004E00081E0D33031F08EEE8D0F8430C8F487E197
:1004F0008D1B41E050E06EE771E00E94692F80E0C3
:10050000C23049F081E0C33031F08EEE8C0F843080
:1005100048F487E18C1B41E050E06CEA71E0AFCF1A
:100520008FEFE7CF8FEFF7CF80E0D23049F081E057
:10053000D33031F08EEE8D0F8430C8F487E18D1BFF
:1005400041E050E061E871E00E94692F80E0C23034
:1005500049F081E0C33031F08EEE8C0F843048F4E6
:1005600087E18C1B41E050E06FEA71E088CF8FEFAC
:10057000E7CF8FEFF7CF9BE0899FF0011124ED5D6E
:10058000FC4F80819181A281B381FB0180839183A3
:10059000A283B38390E080E008959BE0899FF001FF
:1005A0001124ED5DFC4F108211821282138290E0C3
:1005B00080E0089590E080E0089590E080E0089564
:1005C0000F931F93009709F48AC06115710509F410
:1005D00086C0009150021091510220915202309138
:1005E00053020E3F1F4F2F4F3F4F09F06AC0DB01F0
:1005F0004D915D916D917C914093500250935102C9
:1006000060935202709353024091500250915102F4
:100610006091520270915302DC011296ED91FC91AF
:1006200080819181A281B3818093AF039093B003C5
:10063000A093B103B093B20384819581A681B78161
:100640008093AB039093AC03A093AD03B093AE0340
:1006500080859185A285B3858093A7039093A80395
:10066000A093A903B093AA0384859585A685B78531
:100670008093A3039093A403A093A503B093A60330
:1006800010929F031092A0031092A1031092A20354
:100690000E94A10D86EC9DE09093500380934F0340
:1006A00090935203809351030E94900C009731F471
:1006B00021E030E03093B4032093B3031F910F91F6
:1006C00008950091500210915102209152023091F0
:1006D0005302FB01008311832283338395CF8FEF75
:1006E0009FEFECCF8F929F92AF92BF92CF92DF920B
:1006F000EF92FF921F93CF93DF934B015C01109118
:10070000B60382E090E09093B4038093B303811426
:100710009104A104B10441F48091B603811104C095
:100720008091B503C1E08111C0E0C12CD12C7601CC
:100730008091B603811106C08091B503811102C07A
:10074000CC23D9F083E090E09093B4038093B3037B
:10075000CC2381F1CCE9DFEF111102C00E942A11F4
:10076000CE01DF91CF911F91FF90EF90DF90CF905E
:10077000BF90AF909F908F9008956AE070E080E006
:1007800090E00E94A93180E1C80E87E2D81EE11CEA
:10079000F11C8FEF88169806A806B80631F0C1E064
:1007A0008C149D04AE04BF0408F0C0E080E00E94F9
:1007B000C40CBECFD0E0C0E0CFCFCF92DF92EF929B
:1007C000FF920F931F93CF93DF938F3F910511F00B
:1007D00008F051C02091B3033091B40323303105A8
:1007E00039F02091B3033091B4032130310531F455
:1007F00024E030E03093B4032093B3036A017B011B
:10080000EC0182309105A8F011E0AE01C701B601FC
:100810000E948F0CAB01BC01CE011123F9F0DF91D6
:10082000CF911F910F91FF90EF90DF90CF900C949C
:100830004F138C01000F111F015B1C4FD8018D91CC
:100840009C91892B09F30E9459130297E9F6D8016C
:10085000ED91FC91CE011995182FD7CF0E947113FD
:1008600090E080E0DF91CF911F910F91FF90EF908A
:10087000DF90CF9008958FEF9FEFF4CF80E00C943E
:10088000C40CCF93DF9386E090E09093B403809301
:10089000B3030E941D0DEC01EFE4F3E084E0DF01FF
:1008A0001D928A95E9F70E94C2101092B40310922B
:1008B000B303CE01DF91CF9108958091B5030895E0
:1008C00080919E030895609350027093510280932B
:1008D00052029093530290E080E008952F923F924D
:1008E0004F925F926F927F928F929F92AF92BF9240
:1008F000CF92DF92EF92FF920F931F93CF93DF93EC
:1009000000D01F92CDB7DEB78B015C834B83FB0118
:10091000E150F04CEE0FFF1FEE0FFF1FE80FF91F25
:10092000408151816281738177FD27C04C01B12CD8
:10093000A12CC12CD12C7601A016B10664F5F401CE
:1009400061917191819191914F010E945C2C4B8139
:100950005C810E94672D9B01AC01C701B6010E941A
:100960008C2B6B017C012B813C81205E3F4F3C83B3
:100970002B833FEFA31AB30ADFCF9A838983312CED
:10098000212C81E090E0A0E0B0E0C12CD12C7601D8
:1009900020163106CCF0C701B6010F900F900F90D2
:1009A0000F90DF91CF911F910F91FF90EF90DF900B
:1009B000CF90BF90AF909F908F907F906F905F90FF
:1009C0004F903F902F900895E981FA814190519086
:1009D00061907190FA83E98340945094609470948C
:1009E00053014201880E991EAA1EBB1EC501B40107
:1009F0000E945C2C4B815C810E94672D9B01AC01A5
:100A0000C701B6010E948B2B6B017C0181E084142D
:100A10009504A604B70408F080E090E0B0E0A0E000
:100A20002B813C81205E3F4F3C832B833FEF231A79
:100A3000330AAECF2F923F924F925F926F927F9286
:100A40008F929F92AF92BF92CF92DF92EF92FF92DE
:100A50000F931F93CF93DF93CDB7DEB7CB54D1095C
:100A60000FB6F894DEBF0FBECDBF26967FAF6EAF38
:100A7000269728965FAF4EAF28973E8B2D8B2C96EE
:100A8000FFAEEEAE2C97FB01E150F04CEE0FFF1FD6
:100A9000EE0FFF1FE80FF91F80809180A280B380C6
:100AA0008F8A988EA98EBA8EB501A401442777FD4E
:100AB000439555276627772729964FAF2997F90140
:100AC000E150F04CEE0FFF1FEE0FFF1F2896AEAC6B
:100AD000BFAC2897EA0DFB1DC080D180E280F38077
:100AE000CB8EDC8EED8EFE8EB701A601442777FDFE
:100AF00043955527662777272A964FAF2A97188B55
:100B00000F87F80130E020E02C96EEACFFAC2C977C
:100B10002E153F050CF43FC022969FAF8EAF229753
:100B20001A8B098B312C212C812C912C540183940C
:100B30008D829E82AF82B88626968EAC9FAC269719
:100B4000281439047CF129969FAC29972A96AFACDA
:100B50002A9730E020E041E050E060E070E09A1039
:100B6000F5C1C55BDF4F0FB6F894DEBF0FBECDBF3A
:100B7000DF91CF911F910F91FF90EF90DF90CF9079
:100B8000BF90AF909F908F907F906F905F904F90AD
:100B90003F902F90089511921192119211922F5F10
:100BA0003F4FB2CF2296EEADFFAD2297819191914A
:100BB000A191B1912296FFAFEEAF22978F88988CCA
:100BC000A98CBA8CB7FE23C04D815E816F81788578
:100BD00041505109610971095A016B01A81AB90AFA
:100BE000CA0ADB0AD601C50121E0CD80DE80EF8094
:100BF000F8848C159D05AE05BF0508F020E0822E17
:100C0000912CB12CA12C8D829E82AF82B8865D0181
:100C1000CC24DD24A8A2B9A2CAA2DBA29C01AD010A
:100C2000442755272CA33DA34EA35FA32C96EEADDE
:100C3000FFAD2C97E219F3098D889E888E169F06CA
:100C40000CF4F4012896AEACBFAC28972496BFAE46
:100C5000AEAE2497C988DA88DC8ACB8A1E861D86C8
:100C6000812C912C5401839489869A86AB86BC860C
:100C7000812C912C5401CD84DE84CE16DF0604F144
:100C8000F7FF02C0F0E0E0E0E20DF31D2C96EEACC1
:100C9000FFAC2C97EE15FF0554F4EE0FFF1FEE0F7F
:100CA000FF1FE00FF11F80829182A282B3822FEF9B
:100CB000221A320AE989FA893496FA8BE98B3CCFF9
:100CC0002496AEADBFAD2497CD90DD90ED90FD9014
:100CD0002496BFAFAEAF24972B8D3C8D4D8D5E8D8E
:100CE00057FF22C089859A85AB85BC850197A109EC
:100CF000B109AC01BD014C195D096E097F096A019A
:100D00007B0181E029853A854B855C85C216D30637
:100D1000E406F50608F080E0482F50E070E060E05F
:100D200049875A876B877C87B7018827992768A7E7
:100D300079A78AA79BA7EE24FF2428A139A14AA15D
:100D40005BA1C701B6010E9405362B013C012CA115
:100D50003DA14EA15FA168A579A58AA59BA50E948A
:100D600005366CA77DA78EA79FA7AB89BC894D913F
:100D70005D916D917D91BC8BAB8BDB01CA01880DC0
:100D8000991DAA1DBB1D89839A83AB83BC8391E007
:100D90009F8F29813A814B815C81281539054A054D
:100DA0005B0508F01F8E2CA13DA14EA15FA1C701DC
:100DB000B6010E9405366B017C0189809A80AB8068
:100DC000BC808C0C9D1CAE1CBF1C89829A82AB829D
:100DD000BC8252019924882488AA99AAAAAABBAAEB
:100DE00029813A814B815C81280D391D4A1D5B1D8B
:100DF0002CAB3DAB4EAB5FAB8CA49DA4AEA4BFA40B
:100E000054019924882488AE99AEAAAEBBAE280DB1
:100E1000391D4A1D5B1D2CAF3DAF4EAF5FAFAB8997
:100E2000BC8914972D933D934D935C93139728A100
:100E300039A14AA15BA168A579A58AA59BA50E94B5
:100E400005369F8C690D711D811D911D230166243E
:100E50007724460E571E681E791E2CA53DA54EA56B
:100E60005FA54A01AA24BB24840C951CA61CB71CB0
:100E700081E090E0A0E0B0E049815A816B817C8103
:100E80004C155D056E057F0518F080E090E0DC01F3
:100E9000880D991DAA1DBB1D41E050E060E070E087
:100EA00088A899A8AAA8BBA8CCA8DDA8EEA8FFA8E6
:100EB000C814D904EA04FB0418F040E050E0BA0179
:100EC000840F951FA61FB71F812C912C540183946A
:100ED000C8ACD9ACEAACFBAC2CAD3DAD4EAD5FAD12
:100EE0002C153D054E055F0518F0812C912C540101
:100EF000880E991EAA1EBB1E4D855E854F5F5F4FF3
:100F00005E874D87B8CEEF85F889C190D190E1908A
:100F1000F190F88BEF87DB01CA010197A109B109B4
:100F20008C199D09AE09BF09349780839183A283F0
:100F3000B383E1E084179507A607B70708F0E0E060
:100F40004E2F50E070E060E02F5F3F4F2C968EAC4C
:100F50009FAC2C9728153905B4F203CE8F929F923F
:100F6000AF92BF92CF92DF92EF92FF926B017C0122
:100F700049015A01D2D3882349F0C0903509D09055
:100F80003609E0903709F090380933C0C501B40143
:100F9000C4D38111F2CFC501B4017AD3882309F4F7
:100FA0003DC0E894F7F820E030E040E85FE3C70197
:100FB000B6010E94F02B882309F4AAC020E030E09B
:100FC00040E85FE3C701B6010E94612D20E030E0F8
:100FD000A9011816CCF4C501B4010E94612D1816A0
:100FE000CCF4C0903109D0903209E0903309F090F0
:100FF0003409C701B601FF90EF90DF90CF90BF900A
:10100000AF909F908F900895C501B4010E94612D0B
:1010100018163CF7C12CD12C7601EBCF20E030E044
:10102000A901C501B4010E94F02B882309F470C006
:1010300020E030E040E85FE3C501B4019F770E9403
:10104000F02B811114C020E030E0A901C501B401EA
:101050000E94612D18166CF2A701960160E070E005
:1010600080E89FE30E94F42B6B017C01C2CF20E05B
:1010700030E040E050E4C501B4010E94F02B811142
:1010800007C0A7019601C701B6010E949B2DECCFB6
:1010900020E030E040E05FE3C501B4010E94F02BA6
:1010A00020E030E0A901811112C0C701B6010E9401
:1010B000612D87FD34C0C701B601FF90EF90DF902E
:1010C000CF90BF90AF909F908F900C944E2EC70101
:1010D000B6010E94F02B87FF0DC0C501B4010E942C
:1010E000992C9B01AC01C501B4010E94612D181619
:1010F0000CF443CFA5019401C701B601FF90EF9016
:10110000DF90CF90BF90AF909F908F900C94FE2D6A
:10111000C12CD12C80E8E82E8FE3F82E6ACF20E096
:1011200030E0A901C701B6010E94F02B87FFE2CF92
:1011300024CF4F925F926F927F928F929F92AF9245
:10114000BF92CF92DF92EF92FF920F931F93CF93B4
:10115000DF93CDB7DEB7A0970FB6F894DEBF0FBE12
:10116000CDBF809119098111109219096FE079E0C2
:1011700080911A0900DA80914C0290914D02A09161
:101180004E02B0914F028D8F9E8FAF8FB8A380918A
:101190000F0990911009A0911109B0911209409185
:1011A0002509509126096091270970912809841B0F
:1011B000950BA60BB70B898F9A8FAB8FBC8F82E0F4
:1011C000E82EF12C8E010F5E1F4F21E030E0AE01C2
:1011D000475E5F4F61E070E0CE014D962BDC94E0FE
:1011E000E92EF12C0051110922E030E0AE014F5EF2
:1011F0005F4F62E070E080E492E01CDC50E040E091
:1012000064E070E0C8016ADB20E030E040E057E1D4
:101210000E949B2D2091040230910502409106020C
:10122000509107020E94F42B4B015C018092FB0855
:101230009092FC08A092FD08B092FE08C0901B0995
:10124000D0901C09E0901D09F0901E0920910C021D
:1012500030910D0240910E0250910F0260910802F0
:101260007091090280910A0290910B020E94F42B66
:101270002B013C01A7019601C501B4010E948B2BF3
:101280009B01AC01C301B2010E949B2DA7019601F5
:101290000E948C2B6093FF087093000980930109D2
:1012A00090930209C0901C02D0901D02E0901E0293
:1012B000F0901F02209118023091190240911A02F9
:1012C00050911B02609114027091150280911602D8
:1012D000909117020E949B2DA70196010E94F42B6A
:1012E000209120023091210240912202509123024C
:1012F0000E949B2D209124023091250240912602CC
:10130000509127020E94F42B20912802309129024B
:1013100040912A0250912B020E94F42B6093030902
:1013200070930409809305099093060920912C027B
:1013300030912D0240912E0250912F0260910002B7
:101340007091010280910202909103020E949B2DF4
:101350004B015C0120913002309131024091320208
:1013600050913302C701B601F9DD9B01AC01C50103
:10137000B4010E949B2D209134023091350240919E
:101380003602509137020E949B2D209138023091F5
:10139000390240913A0250913B020E94F42B6B01BA
:1013A0007C0120913C0230913D0240913E025091DF
:1013B0003F02609118027091190280911A02909177
:1013C0001B02CCDD9B01AC01C701B6010E94F42BCE
:1013D0006B017C01C0920709D0920809E0920909CB
:1013E000F0920A096091030970910409809105093E
:1013F000909106099B01AC010E949B2DA7019601CB
:101400000E949B2D60930B0970930C0980930D092A
:1014100090930E0980910F0990911009A0911109E4
:10142000B09112098093250990932609A09327096A
:10143000B09328098091FF0890910009A0910109BB
:10144000B091020980931B0990931C09A0931D0978
:10145000B0931E098091790390917A03A0917B0348
:10146000B0917C030196A11DB11D809379039093E7
:101470007A03A0937B03B0937C03A0960FB6F894F5
:10148000DEBF0FBECDBFDF91CF911F910F91FF90B7
:10149000EF90DF90CF90BF90AF909F908F907F9014
:1014A0006F905F904F900895CF93DF9384E090E02A
:1014B000B8D0E3E6F3E080E090E0A0E8BFEB828FF5
:1014C000938FA48FB58F8EE498ECA7EAB9E5848357
:1014D0009583A683B78383E595E5AAEBB7EA808772
:1014E0009187A287B38780E591E0A4E4B9E584877A
:1014F0009587A687B78786E696EEA5E3B4E8808B46
:10150000918BA28BB38BA7E5B3E0B383A283E3E512
:10151000F3E01196FC93EE9389E892E09183808347
:101520009383828387E793E015969C938E93149719
:1015300087E693E013969C938E9312974FEF5FEF9D
:10154000BA0118964D935D936D937C931B97C3E1FD
:10155000D9E08091480290914902A0914A02B0914D
:101560004B028A8B9B8BAC8BBD8B80911002909130
:101570001102A0911202B091130288879987AA875D
:10158000BB871F8218821D8281E090E0A0E0B0E05E
:1015900089839A83AB83BC834AE159E063E082E0AC
:1015A0000E94B20181E08D831E828F81DF91CF91F5
:1015B0000C94CD0280911309811114C081E08093B5
:1015C00013098091140990911509A0911609B09101
:1015D00017090197A105B10529F480911809811116
:1015E0000C94DA02089560E070E080E89FE70895C7
:1015F00060E070E080E89FE7089560E070E080E8D8
:101600009FEF089560E070E080E89FEF089560E04C
:1016100070E080EC9FEF089560E070E080EC9FEF59
:101620000895F5DF60933509709336098093370983
:1016300090933809F1DF6093290970932A09809308
:101640002B0990932C09CFDF6093310970933209F5
:101650008093330990933409CBDF60932D09709305
:101660002E0980932F0990933009C7DF60933909C1
:1016700070933A0980933B0990933C09C3DF6093D0
:101680003D0970933E0980933F0990934009089566
:10169000CF92DF92EF92FF92CF936B017C01AC016E
:1016A0009B016091310970913209809133099091C9
:1016B00034090E94F02BC1E0882371F0A701960144
:1016C0006091390970913A0980913B0990913C09E8
:1016D0000E94F02B8111C0E08C2FCF91FF90EF90F2
:1016E000DF90CF9008950F931F938B019C010027EB
:1016F000112720783F770115110520483F4749F40D
:10170000AB01BC016F77772781E0452B462B472B38
:1017100009F480E01F910F910895E5CF4F925F92F9
:101720006F927F928F929F92AF92BF92CF92DF92F1
:10173000EF92FF920F931F93F89440908E03509076
:101740008F036090900370909103C0908203D090BB
:101750008303E0908403F0908503452B09F0A4C037
:101760009B01AC01241935094609570929013A01A1
:1017700000918A0310918B0320918C0330918D038B
:1017800048015901840C951CA61CB71C80169106B3
:10179000A206B306A0F4009186031091870320915E
:1017A0008803309189030F5F1F4F2F4F3F4F0093E6
:1017B00086031093870320938803309389038092D4
:1017C0008A0390928B03A0928C03B0928D030091B8
:1017D00086031091870320918803309189038092BA
:1017E000920390929303A0929403B0929503009376
:1017F0009603109397032093980330939903609373
:101800008E0370938F038093900390939103AEE6C1
:10181000B0E0A30192010E9452366C0D7D1D8E1D19
:101820009F1D60938203709383038093840390933E
:101830008503009150021091510220915202309183
:1018400053020F3F1F4F2F4F3F4FF1F000915002B7
:101850001091510220915202309153020E3F1F4FBE
:101860002F4F3F4F89F0C0905002D0905102E0902E
:101870005202F090530221E08C149D04AE04BF0488
:1018800008F420E020939E0378941F910F91FF901D
:10189000EF90DF90CF90BF90AF909F908F907F9010
:1018A0006F905F904F9008954B015C0184189508EC
:1018B000A608B708A3019201261B370B480B590B4A
:1018C0006415750586059705D0F082169306A40663
:1018D000B50640F420E030E0A90181149104A10490
:1018E000B10491F4AEE6B0E00E945236A701960131
:1018F000261B370B480B590BCA01B901C5CF8216FD
:101900009306A406B50670F7AEE6B0E0A501940113
:101910000E9452366C0D7D1D8E1D9F1DB5CFFECED3
:10192000CF93DF9300D01F92CDB7DEB71C821B820E
:101930001A82198210929A0310929B0310929C03B0
:1019400010929D03BE016F5F7F4FCE0103960E94F0
:101950008F2969817A818B819C810E947D220097E9
:1019600061F4BE016F5F7F4FCE0103960E949B29F9
:1019700069817A818B819C812AD50F900F900F907D
:101980000F90DF91CF910895FF920F931F93CF9304
:10199000DF93082F60E070E0CB010E94A931FF24A3
:1019A000F3940E946621EC01892B89F010E0CE3F70
:1019B0008FEFD80769F0002361F160E070E0CB01A0
:1019C0000E94A93181E090E0892B59F322C011E0F7
:1019D00021D5EC01892B21F0CE3F8FEFD80759F7A5
:1019E00011111EC011E0229609F410E00E94162188
:1019F000EC01892B21F0CE3F8FEFD807E1F61111D2
:101A000011C011E0CE3F8FEFD80709F410E00111AB
:101A10000BC0CE01DF91CF911F910F91FF900895E0
:101A200011E0E4CF11E0F3CF60E070E0CB010E9461
:101A3000A9311F25812F90E0C7CFCF93DF938091ED
:101A40009E03882321F060E070E0CB0148D631D6B8
:101A5000D0E0C0E0892B71F06AE070E080E090E0B7
:101A60000E94A93181E090DF24D62196C03727E17A
:101A7000D20781F723D60E94D1221092B60310928A
:101A8000B5031092AF031092B0031092B1031092FD
:101A9000B2031092AB031092AC031092AD031092FC
:101AA000AE031092A7031092A8031092A9031092FC
:101AB000AA031092A3031092A4031092A5031092FC
:101AC000A60310929F031092A0031092A1031092FC
:101AD000A2034EEF5FEF6FEF7FEF40935002509302
:101AE0005102609352027093530210929E03E2E9F6
:101AF000F3E028E0DF011D922A95E9F710928E03AA
:101B000010928F03109290031092910310928A0307
:101B100010928B0310928C0310928D031092860307
:101B20001092870310928803109289031092820307
:101B3000109283031092840310928503DF91CF915A
:101B400008951092C2031092C3031092C40310921E
:101B5000C5031092C1038091CA039091CB03909367
:101B6000C0038093BF031092BE031092BD03109276
:101B7000B9031092BA031092BB031092BC031092E7
:101B8000C7031092C60390E080E00895CF92DF92E1
:101B9000EF92FF920F931F93CF938C01892B09F043
:101BA00055C02091CA033091CB038091BF0390911F
:101BB000C0034091CA035091CB035093C00340939C
:101BC000BF032817390781F01092BE031092BD039E
:101BD0001092B9031092BA031092BB031092BC0387
:101BE0001092C7031092C6038091CA039091CB0351
:101BF000019761F58091C6039091C703892B21F469
:101C000080915402811112C08091C6039091C70344
:101C10000197E1F48091B9039091BA03A091BB03BD
:101C2000B091BC030197A105B10581F41092B903ED
:101C30001092BA031092BB031092BC03109254028C
:101C400082E090E09093C7038093C6038091CA031B
:101C50009091CB03019709F01CC18091E003909112
:101C6000E1038017910709F014C18091DC03909182
:101C7000DD03A091DE03B091DF03009709F409C1F1
:101C80002091DB0321110DC04091DC035091DD0355
:101C90006091DE037091DF03452B462B472B09F43F
:101CA000F8C02091C6033091C7032230310509F0F6
:101CB000F0C02091BD032111ECC0FC01C080D18097
:101CC000E280F3808091C103882309F4D3C080911E
:101CD000CD039091CE03892B09F4FDC02091CD0353
:101CE0003091CE0381E02230310509F080E020916F
:101CF000CD033091CE03C1E02130310549F0209170
:101D0000CD033091CE03C1E02230310509F0C0E0AF
:101D1000882309F456C02091D7033091D80340910D
:101D2000D9035091DA03C701B6010E94612D87FDE6
:101D300014C02091D7033091D8034091D90350911A
:101D4000DA036091C2037091C3038091C403909140
:101D5000C5030E94F02B87FD22C02091D70330914C
:101D6000D8034091D9035091DA03C701B6010E940C
:101D7000612D181634F52091D7033091D803409186
:101D8000D9035091DA036091C2037091C30380912B
:101D9000C4039091C5030E94F02B811112C0809161
:101DA000CF039091D003A091D103B091D203892B9E
:101DB0008A2B8B2B19F481E08093BE0381E0809302
:101DC000BD03CC2309F456C02091D7033091D8032A
:101DD0004091D9035091DA03C701B6010E94F02B5C
:101DE00087FF14C02091D7033091D8034091D903C5
:101DF0005091DA036091C2037091C3038091C403D0
:101E00009091C5030E94612D87FF22C02091D703C6
:101E10003091D8034091D9035091DA03C701B6013C
:101E20000E94F02B811126C02091D7033091D80356
:101E30004091D9035091DA036091C2037091C303BA
:101E40008091C4039091C5030E94612D181694F4EB
:101E50008091CF039091D003A091D103B091D20390
:101E6000892B8A2B8B2B19F481E08093BE0381E0B0
:101E70008093BD0381E09091BD03911180E0809338
:101E8000C103C092C203D092C303E092C403F09294
:101E9000C503012B09F067C18091C6039091C70368
:101EA000892BD9F41092CC031092BD038091540277
:101EB000882379F082E090E09093C7038093C60373
:101EC000109254022091CA033091CB0381E0232B5E
:101ED000E9F080E01BC081E00ACF109254028091AB
:101EE000CC03882349F01092BE031092C7031092CE
:101EF000C6031092CC03EDCF8091CA039091CB031F
:101F0000892BE1F08091BD031092BD032091C6039F
:101F10003091C7032230310509F45EC088F42115E1
:101F2000310509F448C02130310509F4F3C010929D
:101F3000BE031092BD031092CC0338C081E0E6CFFF
:101F40002330310509F4B1C02430310581F74091C7
:101F5000B9035091BA036091BB037091BC03411562
:101F600051056105710561F041505109610971091F
:101F70004093B9035093BA036093BB037093BC03BF
:101F80004091B9035091BA036091BB037091BC03B7
:101F9000452B462B472BD9F42091C8033091C90318
:101FA0002130310509F046C01092BE031092C703DC
:101FB0001092C6030CC080915402882341F082E045
:101FC00090E09093C7038093C6031092540210923E
:101FD000B7038091BE03CEC08823C9F38091CF039D
:101FE0009091D003A091D103B091D2031816190695
:101FF0001A061B060CF07DC08091CA039091CB039A
:10200000019709F076C08091CF039091D003A09101
:10201000D103B091D2038093B9039093BA03A093F4
:10202000BB03B093BC0383E090E09093C70380931D
:10203000C603CDCF4091D3035091D4036091D50313
:102040007091D603452B462B472BA9F01092BE0367
:102050008091D3039091D403A091D503B091D6037E
:102060008093B9039093BA03A093BB03B093BC03CE
:1020700081E090E0DACF882399F080915502909129
:102080005602A0915702B09158028093B9039093E1
:10209000BA03A093BB03B093BC0384E090E0C5CF28
:1020A0001092BE0382E090E0C0CF8091B90390917E
:1020B000BA03A091BB03B091BC030097A105B10581
:1020C00059F00197A109B1098093B9039093BA031C
:1020D000A093BB03B093BC038091B9039091BA0362
:1020E000A091BB03B091BC03892B8A2B8B2B09F0E9
:1020F0006ECF8091550290915602A0915702B091F7
:102100005802892B8A2B8B2B09F44ECF81E08093C8
:10211000BE03B3CF4091B9035091BA036091BB03A2
:102120007091BC03411551056105710561F0415085
:102130005109610971094093B9035093BA0360933F
:10214000BB037093BC034091B9035091BA036091F3
:10215000BB037091BC03452B462B472B09F037CFAF
:102160008111C7CF9FCF8091B703882309F431CF66
:102170008091B803CF911F910F91FF90EF90DF9066
:10218000CF9008951092C2031092C3031092C4031B
:102190001092C5031092C1031092C7031092C60398
:1021A0001092C0031092BF031092E1031092E0035B
:1021B0001092BE031092BD031092B9031092BA039D
:1021C0001092BB031092BC031092B8031092B70395
:1021D0001092DC031092DD031092DE031092DF03F5
:1021E0001092DB031092D7031092D8031092D903F8
:1021F0001092DA0388EE93E0A0E0B0E080935502FD
:1022000090935602A0935702B09358021092D303B2
:102210001092D4031092D5031092D6031092CF03DC
:102220001092D0031092D1031092D2031092CE03D9
:102230001092CD0381E0809354021092CC0310924F
:10224000CB031092CA031092C9031092C80390E006
:1022500080E008958091CA039091CB03892BE1F42B
:1022600080915402882351F08091CC03811106C0E3
:1022700081E08093B8038093B70308958091CC03E5
:10228000882341F080915402811104C01092B80358
:1022900081E0F1CF1092B703089582E090E0FA0157
:1022A000918380838FEF9FEF0895CF93DF93EA01AF
:1022B000009711F00E94F1231982188290E080E0CB
:1022C000DF91CF910895DB01009719F48FEF8C9384
:1022D00008952EEF2C93FC017096E031F10508F083
:1022E00037C08827E958FE4E8F4F0C944A36A61106
:1022F000A411A211A0119E119C1198119A1196116E
:10230000941192118F118B1187118D11A81180E3F7
:1023100011968C93089589E2FBCF82E2F9CF119652
:102320001C92089583E2F4CF81E2F2CF81E1F0CFF5
:1023300087E2EECF8AE2ECCF80E1EACF84E2E8CF19
:1023400088E2E6CF86E2E4CF81E3E2CF83E3E0CF29
:1023500080E2DECF8091EE039091EF030895909399
:10236000EF038093EE0308958091ED03089590911B
:10237000ED03892B8093ED030895982F909580911C
:10238000ED0389238093ED0308958091EC03089574
:102390008091EA039091EB0308956115710559F05E
:1023A000FB0130E020E070E060E02417350719F011
:1023B0006115710511F0CB010895A081B181A817B5
:1023C000B90709F4BF012F5F3F4F3696EECF8091DA
:1023D000F00381111CC060D266D29093E303809316
:1023E000E2030E94EF1B0E94011C9093E70380937D
:1023F000E6030E947E200E9485209093E50380934F
:10240000E40381E08093F00390E080E0089584EF9E
:102410009FEF08958F929F92AF92BF92CF92DF92DB
:10242000EF92FF920F931F93CF93DF9300D000D0D2
:1024300000D01F92CDB7DEB71A86198618861F8284
:102440001E821D821C821B821A8219828091F003D7
:1024500007EF1FEF882309F49CC08E010D5F1F4F0B
:102460009E012B5F3F4FAE01495F5F4FBE01675F2B
:102470007F4F90E080E00E9402228C01009721F0C3
:102480000596029708F0DBC029853A8521153105AC
:1024900009F402C1ED80FE804B815C81B701640FBD
:1024A000751F8F8198858617970708F4F5C0E20E8F
:1024B000F31ED7019C91903C09F07FC0423051053A
:1024C00008F47BC011968C914091EE035091EF037C
:1024D000452B09F49CC0913F08F071C02CE1290FF5
:1024E0002D3008F48BC02DE2290F203108F489C06B
:1024F000903C21F48150823008F483C088E3890F36
:102500008B3008F481C093E6C92E91E1D92EEDE419
:10251000F1E16D817E81AE014F5F5F4F89859A85C4
:1025200019955C01C114D104A1F189809A808114AC
:10253000910479F18B819C818815990508F487C0F5
:1025400010E000E04B815C8170E060E0C7010E9418
:10255000743601151105E9F449815A8169857A8536
:102560008D819E81680F791FC501F6011995E9805B
:10257000FA800D811E812F81388549855A856FEF3C
:102580007FEF81E090E00E949D218C01892B09F072
:1025900056C0C8012A960FB6F894DEBF0FBECDBF55
:1025A000DF91CF911F910F91FF90EF90DF90CF902F
:1025B000BF90AF909F908F90089580E085CF30E0DE
:1025C00020E0220F331FF901EE51FC4F0190F08102
:1025D000E02D309709F497CF892F90E01995009757
:1025E00009F491CFDC011296ED91FC9113971496AA
:1025F000CD90DC90309709F08CCF1FC021E030E007
:10260000E0CF22E030E0DDCF23E030E0DACFD12CA4
:10261000C12CE5E5F1E19F3F09F07BCFE091E203BA
:10262000F091E303309721F4C90104EF1FEF0CC0D0
:102630008FEF90E019950097A9F604EF1FEF8985B9
:102640009A85009709F4A5CF0E94F123A2CF0E949A
:10265000CC228C0189859A850E94F12370E060E08C
:10266000C4010E94652298878F830E949A219E83CD
:102670008D836F8178856115710559F0C8010E94BD
:102680007D259A87898706EF1FEF892B09F058CFA0
:1026900059CF08EF1FEF56CF08EF1FEFD0CF209193
:1026A000F003222319F020E00C94061C87EF9FEF23
:1026B00008958091EE039091EF0308950E948A207F
:1026C0000E94E41FF5D0E2EEF3E088E0DF011D9206
:1026D0008A95E9F71092F00390E080E008950C9459
:1026E000421E21E040E050E0BA010C94061C86E056
:1026F00090E0FA019183808390E080E0089547E0C4
:1027000050E06CE872E049CEDF92EF92FF920F93B7
:102710001F93CF93DF938A01EC01C60FD71FE09080
:10272000F403F090F503D9800E94B422D81619065C
:1027300078F082E090E0F801918380838EEF9FEF44
:10274000DF91CF911F910F91FF90EF90DF9008954F
:10275000EF2841F482E090E0F8019183808384EFD8
:102760009FEFEECF89818093F30390E00196F8010B
:102770009183808390E080E0E3CFCF93DF93EA0101
:102780000E94F31E882321F00E94C1220E94F41EA1
:1027900082E090E0998388838BEF9FEFDF91CF9168
:1027A0000895CF93DF93EB0186E0FB0111928A95A8
:1027B000E9F78FEF8883D8DD8983E7DD8A83E8DD59
:1027C0009D838C83DF91CF910895CF93DF93EA01AE
:1027D0000E94F61E811109C082E090E099838883EF
:1027E00085EF9FEFDF91CF91089590E080E0B7DD16
:1027F00081E090E09983888390E080E0F3CF0F93AD
:102800001F93CF93DF93EA018C01060F171F0E94DD
:10281000F61E81110BC082E090E09983888385EFDA
:102820009FEFDF91CF911F910F910895F801818162
:10283000823038F082E090E0998388838EEF9FEFBA
:10284000F0CF81E090E08BDD88E090E09983888391
:1028500090E080E0E6CFCF93DF930097D1F4EB01D7
:10286000FB01329686E0DF011D928A95E9F78FEF32
:10287000888385E089831A820E94B4228B830E9418
:10288000B3229D838C8381E08E838F83DF91CF91F0
:102890000895DF91CF9117CD8FE793E19093F203E5
:1028A0008093F10308958091F1039091F2030895CC
:1028B0001092F2031092F10308958091F403909125
:1028C000F5030895411105C0611571058105910554
:1028D00061F06093F4037093F5038093F603909393
:1028E000F7034093F80381E0089580E00895FF9294
:1028F0000F931F93CF93DF938A01EC01C60FD71F6D
:10290000F9800E94B422F816190668F082E090E07F
:10291000F801918380838EEF9FEFDF91CF911F911C
:102920000F91FF9008956C817D818E819F814B81F5
:10293000C9DF811108C082E090E0F80191838083B3
:1029400084EF9FEFEACF89818093F30390E00196B3
:10295000F8019183808390E080E0DFCFCF93DF9315
:10296000EA01FC01E60FF71F64817581868197817A
:102970004381A8DF811109C082E090E099838883B8
:1029800084EF9FEFDF91CF91089581E090E09983EC
:10299000888390E080E0F6CFE4EFF3E0408151815E
:1029A00062817381480F511D611D711D40835183E8
:1029B000628373830895CF93C091F3034C2F50E04B
:1029C0006091F4037091F50301960E946B368C2F91
:1029D000E3DF1092F303CF910895009799F480916B
:1029E000F4039091F5032FEFFB012083892B59F01D
:1029F0002091F30330E02F5F3F4F2417350719F480
:102A0000CB01D9CF60CC0895009799F48091F4035D
:102A10009091F5032FEFFB012083892B59F0209132
:102A2000F30330E02F5F3F4F2417350719F4CB0134
:102A3000C2CF49CC089523E1AC01249FC001259F5A
:102A4000900D1124E091FD03F091FE03E80FF91FB2
:102A5000238134812250310981E02230310508F090
:102A600080E008950F931F93CF93DF930091FF03AE
:102A700010910004D0E0C0E080E00C171D0749F47D
:102A800091E0811190E0892FDF91CF911F910F91FB
:102A900008958111F5CFCE01CEDF2196EECFA09122
:102AA000FD03B091FE03109729F12091FF033091AF
:102AB000000482179307F0F453E1589F9001599F47
:102AC000300D1124A20FB31FED91FC911197309797
:102AD00089F012968C91681768F48DE0689FE00D7C
:102AE000F11D112480819181892B21F081E0928157
:102AF000491708F080E008959C0143E1429FC0011E
:102B0000439F900D1124E091FD03F091FE03E80F27
:102B1000F91F8385823091F481E090E065817681B0
:102B20004091590250915A026417750711F490E0D0
:102B300080E0892B19F081E0232B09F080E00895D3
:102B4000FC01A081B1818DE0689FA00DB11D112411
:102B500013964D915C9185859685489F9001499F7C
:102B6000300D589F300D1124C9010196611103C029
:102B7000478144FD04960895EF92FF920F931F93AF
:102B8000CF93DF93EA01FC01E60FF71F0281138167
:102B9000E480F5804F2D6E2DC80181DF81110DC0BD
:102BA00082E090E0998388838EEF9FEFDF91CF9151
:102BB0001F910F91FF90EF900895C8013CDF88238B
:102BC00039F082E090E09983888388EF9FEFEECF21
:102BD0001093600200935F02E0926102F092620241
:102BE00081E090E09983888390E080E0DFCFCF920E
:102BF000DF92EF92FF920F931F93CF93DF937A01AF
:102C0000EC01C60FD71FC0905F02D0906002009108
:102C1000610210916202412F602FC60140DF8111D5
:102C200010C082E090E0F701918380838AEF9FEFEC
:102C3000DF91CF911F910F91FF90EF90DF90CF9098
:102C40000895C601F8DE882341F082E090E0F701A4
:102C50009183808388EF9FEFEBCF4C815D816E8104
:102C60007F819A8189818F3F41F082E090E0F70176
:102C7000918380838EEF9FEFDBCFE3E1EC9D9001AA
:102C8000ED9D300D1124E091FD03F091FE03E20F64
:102C9000F31F0190F081E02D2DE0029FE00DF11D6A
:102CA00011240190F081E02D27E0129FE00DF11D2D
:102CB0001124808391838B81828343835483658332
:102CC00076831F5F1093620281E090E0F7019183A9
:102CD000808390E080E0ACCFEF92FF920F931F9340
:102CE000CF93DF937A018C01060F171FC091FD036C
:102CF000D091FE03209781F021E030E0F80182813D
:102D000093814091FF03509100048417950710F0C0
:102D100030E020E0232B71F482E090E0F701918312
:102D200080838EEF9FEFDF91CF911F910F91FF90E6
:102D3000EF90089543E1489F9001499F300D112481
:102D4000C20FD31F78DE882341F082E090E0F701C4
:102D50009183808388EF9FEFE6CFF801248135814E
:102D600020383105C8F687818111D6CF4181842F63
:102D700090E08F7E009741F082E090E0F701918330
:102D8000808386EF9FEFCFCF4F833E832D832681B5
:102D900028871986223010F421E0288721E030E0CE
:102DA000F70131832083BFCF88E090E0FA0191835F
:102DB000808390E080E00895FB018FEF808381E1C4
:102DC00081838FEF9FEF9383828380E890E09583E8
:102DD0008483168217820895FB018FEF808391E030
:102DE000918382839383848384E3858381E090E06D
:102DF00097838683089582E090E0FA01918380832F
:102E000080EF9FEF0895DF92EF92FF920F931F9351
:102E1000CF93DF93EA01FC01E60FF71F8181813038
:102E200071F082E090E0998388838FEF9FEFDF91CC
:102E3000CF911F910F91FF90EF90DF9008958281C5
:102E40009381D4802581E680F7800091FD03109165
:102E5000FE030115110539F482E090E0998388831F
:102E60008CEF9FEFE4CF4091FF0350910004841753
:102E7000950738F082E090E0998388838EEF9FEF8A
:102E8000D6CF892B39F082E090E09983888386EF52
:102E90009FEFCDCF8D2D8D7FB1F72130A1F781E050
:102EA000D11006C091E0E916F10431F080E004C0D1
:102EB000E2E0EE16F104D0F3882329F390E080E0FD
:102EC000BADD882339F082E090E09983888388EF27
:102ED0009FEFADCFF801D38681E08487F686E58643
:102EE000108A178681E090E09983888390E080E0E3
:102EF0009ECF4DE050E066EB72E04FCA8F929F92FA
:102F0000BF92CF92DF92EF92FF920F931F93CF93D6
:102F1000DF93EA01FC01E60FF71F828193810481B0
:102F2000B580E091FD03F091FE03309791F482E0CB
:102F300090E0998388838CEF9FEFDF91CF911F9171
:102F40000F91FF90EF90DF90CF90BF909F908F9068
:102F500008952091FF03309100048217930738F001
:102F600082E090E0998388838EEF9FEFE6CF23E1A4
:102F7000289F6001299FD00C1124EC0DFD1DE080DD
:102F8000F180E114F10499F28281081748F78DE08D
:102F9000089F80011124E00EF11EF70180819181CC
:102FA000892B29F6BB20E1F2F7E0BF9E40011124F6
:102FB000C4010E94B823F70191838083E091FD034F
:102FC000F091FE03EC0DFD1D0190F081E02DE00F6E
:102FD000F11F80819181009739F482E090E099831C
:102FE00088838DEF9FEFA9CFA40170E060E00E947D
:102FF00074368091FD039091FE03C80ED91EF60130
:1030000080819181080F191FF801B28281E090E060
:103010009983888390E080E090CFAF92BF92CF9267
:10302000DF92FF920F931F93CF93DF93EA01FC018E
:10303000E60FF71F82819381F4800091FD031091C8
:10304000FE030115110581F482E090E099838883E5
:103050008CEF9FEFDF91CF911F910F91FF90DF9049
:10306000CF90BF90AF9008952091FF03309100045E
:103070008217930738F082E090E0998388838EEF7F
:103080009FEFE8CF2FEF2F0D2C3FA8F723E1289FCC
:103090006001299FD00C11240C0D1D1DF8018081A9
:1030A0009181892B89F6FDE0FF9E50011124C50115
:1030B0000E94B823F80191838083E091FD03F09191
:1030C000FE03EC0DFD1D80819181009739F482E0B3
:1030D00090E0998388838DEF9FEFBCCFA50170E0CE
:1030E00060E00E947436E091FD03F091FE03EC0D68
:1030F000FD1DF28281E090E09983888390E080E07A
:10310000A9CFCF92DF92EF92FF920F931F93CF93AD
:10311000DF93860F971FFC01028113818091FD03CD
:103120009091FE03892B81F082E090E0FA01918377
:1031300080838CEF9FEFDF91CF911F910F91FF90D4
:10314000EF90DF90CF900895C801B0E0A0E0019724
:10315000A109B1098F3F9F4FA105B10540F082E061
:1031600090E0FA01918380838EEF9FEFE4CF7A01A4
:1031700083E1809F6001819FD00C1124C6010E94D1
:10318000B823EC01009741F482E090E0F7019183CD
:1031900080838DEF9FEFCFCFA60170E060E00E94AB
:1031A0007436D093FE03C093FD0310930004009384
:1031B000FF0390E080E02FEF3FEF41E061E070E03F
:1031C0008017910741F481E090E0F70191838083BB
:1031D00090E080E0B0CF3A8B298B1B864C877E87AE
:1031E0006D87188A1F8601966396EACFEF92FF9249
:1031F0001F93CF93DF93EC0110E0F12CE12C6A8157
:103200001617B0F083E0689FB0011124AE014F5E45
:103210005F4FC7010E941D24009721F02FEF3FEF61
:103220003A8B298BDF91CF911F91FF90EF900895FA
:10323000612FCE0185DC61E070E00E946522E81616
:10324000F90608F47C011F5FDACFF8942091FB03A4
:103250003091FC0381E02115310509F080E0232B3A
:1032600009F0789408952F923F924F925F926F9257
:103270007F928F929F92AF92BF92CF92DF92EF9206
:10328000FF920F931F93CF93DF933C01660E771E3F
:10329000F301828193814C01B12CA12CC091FD03DB
:1032A000D091FE03209769F021E030E06091FF03A8
:1032B000709100048617970710F030E020E0232B70
:1032C000D1F482E090E0FA01918380838EEF9FEF4A
:1032D000DF91CF911F910F91FF90EF90DF90CF90F2
:1032E000BF90AF909F908F907F906F905F904F9026
:1032F0003F902F9008958092630290926402A09272
:103300006502B092660263E1689F9001699F300D8B
:103310001124C20FD31FF3018181833040F082E07A
:1033200090E0FA019183808386EF9FEFD1CF2A014D
:103330002B813C81232BF1F4288139819F8191FFDE
:103340002EC0232B09F46FC0209102049A81422FD2
:10335000490F5527551FBA0141E050E0613871050A
:1033600014F050E040E0452B09F45DC02A87920F2D
:10337000909302048150823008F481C066DF882374
:1033800009F4D8C0F3018181813009F48DC008F4BB
:103390007BC0823009F4C6C090E080E0ADC0232B32
:1033A00009F441C0209101049A81E22FE90FFF271F
:1033B000FF1F41E050E0ED3FF10514F050E040E028
:1033C000452B89F12A87920F90930104D3CFA081D6
:1033D000B181A20FB31F11966C91060F111D0196BA
:1033E000295F3F4F8417950794F38D859E85089F2D
:1033F0001001099F300C189F300C1124C114D10406
:10340000D1F48F8184FF17C00E94B322F5E02F0E04
:10341000311C21E08215930508F420E0A701435FE9
:103420005F4F21110EC082E090E0F2019183808312
:1034300087EF9FEF4DCF0E94B3222FEF221A320A5F
:10344000E8CF88819981E80EF91EF7011483038380
:10345000FFEFCF1ADF0A7A018A818C151D0409F06B
:103460000CF48CCFE881F981EE0DFF1D428150E014
:1034700030E020E010E000E090E080E0B3CFF12CFD
:10348000E12CD12CC12CE8CF81E090E09C838B8390
:10349000E9DA882309F480CF81E090E00E94AF113F
:1034A00080E40E94BD1178CF89899A89019661F0E4
:1034B00083E090E09C838B8382E090E00E94AF11D8
:1034C00080E40E94B71168CF8D819E8120915902BE
:1034D00030915A0282179307D1F460915D02709186
:1034E0005E02AE014F5E5F4F80915B0290915C0285
:1034F0000E943C250097E1F2789422E030E0F2014E
:1035000031832083892B99F08DEF9FEFE1CE8928BD
:103510008A288B2869F6892B59F6CE0167DE188A2E
:103520001F86E8CF82E090E09C838B8335CF90E0CC
:1035300080E0CECE82E090E0F2019183808385EF3F
:103540009FEFC6CE8F929F92AF92BF92CF92DF92A3
:10355000EF92FF920F931F93CF93DF93EA018C01B9
:10356000060F171FF8018181833098F082E090E008
:103570009983888386EF9FEFDF91CF911F910F9101
:10358000FF90EF90DF90CF90BF90AF909F908F9083
:1035900008958091FD039091FE03892B61F081E0F5
:1035A00090E02091FF0330910004232B11F490E070
:1035B00080E0892B39F482E090E0998388838EEF54
:1035C0009FEFDACF42DE882309F4DFC0F801818162
:1035D000813009F495C0E8F0823099F42091FF031E
:1035E00030910004E091FD03F091FE0390E080E053
:1035F00041E050E02817390709F0BDC033DA8111E6
:1036000017C0789481E090E09983888390E080E00F
:10361000B3CF2091FF0330910004E091FD03F091BE
:10362000FE0390E080E041E050E02817390741F4C4
:1036300081E090E00E94AF1180E40E94BD11E1CFD3
:1036400063817481672B11F05483438301967396D1
:10365000ECCFE091FD03F091FE03E00FF11F238119
:10366000348122303105D9F4218932892F3F3F4FEF
:10367000B1F4258136814091590250915A022417A4
:10368000350761F5AF014F5E5F4F60915D0270914C
:103690005E0280915B0290915C020E943C25EFEFFC
:1036A000CE1ADE0AEE0AFE0A0D5E1F4F4091FF039E
:1036B0005091000470E060E0C416D506E606F706F7
:1036C0003CF5009731F27894892B09F49BCF82E086
:1036D00090E0998388838DEF9FEF4ECFC114D10482
:1036E000E104F104E1F6232BD1F6CF017FDDE09177
:1036F000FD03F091FE03E00FF11F108A1786CFCF74
:1037000010E000E090E080E0C12CD12C7601CECF1B
:103710000097C9F610E000E0812C912C540183E061
:10372000E82EF12C1AC0E091FD03F091FE03E00FAA
:10373000F11F83819481029749F4F482E38282E04D
:1037400090E00E94AF1180E40E94B711FFEF8F1A42
:103750009F0AAF0ABF0A0D5E1F4F8091FF03909131
:103760000004B0E0A0E088169906AA06BB06DCF2C9
:1037700090E080E0A8CF638174816230710511F41C
:10378000548343830196739635CF82E090E099830A
:10379000888385EF9FEFF0CE0097B9F48FEFFB01A0
:1037A0008083209163023091640243E1429FC00113
:1037B000439F900D1124E091FD03F091FE03E80F6B
:1037C000F91F8285FB01818308950C94631188E0C1
:1037D00090E0FA019183808390E080E00895109258
:1037E000FC031092FB03EDEFF3E086E0DF011D9296
:1037F0008A95E9F789E797E19093FA038093F903B3
:1038000008958091F9039091FA0308952F923F92C1
:103810004F925F926F927F928F929F92AF92BF92E0
:10382000CF92DF92EF92FF920F931F93CF93DF938C
:10383000CDB7DEB72F970FB6F894DEBF0FBECDBF62
:10384000F894E091FB03F091FC033196F093FC03B4
:10385000E093FB0378944090FD035090FE034114E5
:10386000510409F40CC2E091FF03F0910004EF2B26
:1038700009F405C22D8749875A876B877C8798870B
:103880008F831201B12CA12C10E000E08091FF0386
:1038900090910004A816B90618F40115110529F134
:1038A000F8948091FB039091FC0301979093FC03A3
:1038B0008093FB037894C8012F960FB6F894DEBF6F
:1038C0000FBECDBFDF91CF911F910F91FF90EF9071
:1038D000DF90CF90BF90AF909F908F907F906F9030
:1038E0005F904F903F902F9008957101E418F50874
:1038F000D10117968C91179781FD54C013968D9125
:103900009C911497039709F04DC015968D919C9149
:10391000EF81F8858E179F0709F044C0B50190E04C
:1039200080E07FD48A832091FD033091FE033D83A4
:103930002C833D85332309F44CC04C815D81452B9C
:1039400009F49AC18091FF0390910004A816B9066A
:1039500008F092C1C501D0D88823E9F06C817D813F
:103960006E0D7F1D7D836C83DB011F968D919C9175
:10397000892B89F0D12CC12CF12CE12CAC81BD819B
:1039800012968C9112978E151F0409F094F450969C
:103990001C921E921F972A81222321F0B50190E0EC
:1039A00080E041D43FEFA31AB30A43E1240E311C57
:1039B0006DCFAC81BD81ED91FC91EC0DFD1D85813C
:1039C00096810FD7BFEFEB1AFB0AEDE0CE0ED11CAC
:1039D000D5CFEC81FD81309709F44EC18091FF0372
:1039E00090910004A816B90608F046C1EE0DFF1D1F
:1039F000FF87EE87C50180D88B83882339F1AE8598
:103A0000BF851F968D919C915097019621E01D9640
:103A10004D915C918417950709F020E02E8319825F
:103A2000712C10E000E0AE85BF8512968C9178165F
:103A300008F45DC0EE85FF858785908901966585D0
:103A400076850E941436908B8787A5CFB1E0BE8320
:103A5000E6CF992493946BC08BD6F6019683858329
:103A600082C0D601ED90FC90B7E06B9EE00CF11C9B
:103A70001124F7016381748180818F3F61F121E01E
:103A800030E002C0220F331F8A95E2F7C901092EE8
:103A9000000CAA0BBB0BFB01408151816281738139
:103AA00084239523A623B72321E0892B8A2B8B2BF4
:103AB00009F420E0D4012C93D70111968C91F601E2
:103AC00023853485820F932F911D880E991E1486AD
:103AD000138663949BC0418150E0C4010E946B3601
:103AE000EBCF998206EF1FEFC5C01982C3C0F981E1
:103AF000F111A0CFEDE07E9E70011124AE85BF854F
:103B0000CD90DC90CE0CDF1C15D49D838C83BB81C3
:103B1000BB2309F49ECF81E0EE85FF8527853089A0
:103B2000232B09F080E0982E882309F458C0672DD4
:103B30008E859F8505D8D60118969C938E931797EE
:103B400061E070E0C2D4EE85FF85218932892F3F84
:103B5000320709F481CFBC01C901CFD7D60116962F
:103B60009C938E931597D60115968D919C911697DF
:103B7000009709F4B6CFEC81FD818E0F9F1F1A9636
:103B80009C938E931997AE85BF85ED91FC9111970B
:103B9000EE0EFF1EF70121853285148613861A96D4
:103BA0008C91870DD9018D93711016C0EE85FF851C
:103BB000878184FF11C049855A856B857C85F90111
:103BC0004183528363837483F701838594850496CC
:103BD000A80FB91F14861386F701B287A187D601F3
:103BE00015968D919C911697892B09F443C0EE850B
:103BF000FF85258136818091590290915A022817BC
:103C0000390779F019968D909C90612CD601129607
:103C10008C911297681608F424CF1A969C928E9273
:103C20001997BE81BB2309F460CF61E070E0F60113
:103C3000878190854AD4D6011796ED90FC9018970D
:103C400015964D915C91E1E0F0E0BA81BB2311F053
:103C5000F0E0E0E00C811D819C01B50188279927E7
:103C60008E1B9F0B6AD38C01892B21F0F601858175
:103C70009681B7D57394D7CE0FEF1FEF8CCE10E09F
:103C800000E00ECE2F923F924F925F926F927F9202
:103C90008F929F92AF92BF92CF92DF92EF92FF925C
:103CA0000F931F93CF93DF938091FD039091FE03B9
:103CB00010E000E0892BA9F0C8DA0AEF1FEF882393
:103CC00081F02090FF0330900004C091FD03D0915B
:103CD000FE03D12CC12C10E000E02C143D04A9F40B
:103CE0007894C801DF91CF911F910F91FF90EF90D1
:103CF000DF90CF90BF90AF909F908F907F906F900C
:103D00005F904F903F902F900895C6010E947C15C0
:103D1000882309F18B819C810397E9F48F85988929
:103D2000892BC9F0B60190E080E07BD221E030E041
:103D3000882311F030E020E044245524421A530A2D
:103D4000B12CA12C912C812C8A818815190409F0A1
:103D500038F4188A1F864FEFC41AD40A6396BDCF71
:103D6000E881F981EA0DFB1D85819681892BA1F1FE
:103D700061E070E087819085A8D33C01DBD28C01A3
:103D8000E881F981EA0DFB1D8185928525813681C7
:103D9000200F311FAC01421B530B9A014781508504
:103DA000421B530B70E060E00E947436E881F98199
:103DB000EA0DFB1DE780F084458156819301B60131
:103DC000C201BBD28C01892B39F0E881F981EA0D5F
:103DD000FB1D8581968105D55FEF851A950A8DE0DB
:103DE000A80EB11CB1CF31CA789408952F923F929A
:103DF0004F925F926F927F929F92AF92BF92CF92BB
:103E0000DF92EF92FF920F931F93CF93DF9300D037
:103E100000D0CDB7DEB70091FD031091FE039924C9
:103E200093940115110509F43EC0A090FF03B090D2
:103E300000040BDA982E8823B1F11092FE03109241
:103E4000FD03109200041092FF03109201041092DF
:103E500002048FEF9FEFDC01809363029093640272
:103E6000A0936502B093660278947FD31E830D837E
:103E7000C12CD12C7601C501B0E0A0E089839A83E2
:103E8000AB83BC8322242A94322C89819A81AB8112
:103E9000BC81C816D906EA06FB06F4F0C801A1D415
:103EA00080E40E94BD11892D26960FB6F894DEBFDE
:103EB0000FBECDBFDF91CF911F910F91FF90EF907B
:103EC000DF90CF90BF90AF909F907F906F905F906A
:103ED0004F903F902F900895AD81BE8115968D91A2
:103EE0009C9116972091590230915A02821793079C
:103EF000D1F451968D919C91EED5ED81FE8180811A
:103F00009181B12CA12C412C512C3201892B89F5A6
:103F1000BFEFCB1ADB0AEB0AFB0AED81FE81739639
:103F2000FE83ED83B2CFC114D104E104F10429F77B
:103F3000892B19F7ED81FE81818992898F3F98073E
:103F400009F029D5AD81BE8152963C922E925197AF
:103F5000D4CF8A0D9B1DDC018D919C91009709F0B7
:103F600040D4BFEF4B1A5B0A6B0A7B0AEDE0AE0E42
:103F7000B11CAD81BE818D919C91119712964C918F
:103F800050E070E060E044165506660677060CF3D4
:103F900028D4BECFCF93DF93EA0128DF811109C077
:103FA00082E090E09983888385EF9FEFDF91CF9146
:103FB000089581E090E00E94AF1181E090E0998344
:103FC000888390E080E0F2CF11DF1092FA03109224
:103FD000F903089542E050E064E073E00C94CD11E1
:103FE000FF920F931F93CF93DF938A01EC01C60FCB
:103FF000D71FF980B9D20897F816190671F068F042
:1040000082E090E0F801918380838EEF9FEFDF9153
:10401000CF911F910F91FF9008956C817D818E81CA
:104020009F814B810E946214811108C082E090E060
:10403000F8019183808384EF9FEFE9CFF9800E949C
:104040005D144F2D50E0BE01685F7F4F0E946B36BC
:1040500089810E94CC1481E090E0F80191838083F3
:1040600090E080E0D4CFDF92EF92FF920F931F9306
:10407000CF93DF938A01EC01C60FD71F0E945D1416
:104080007C01D98071D2DD2059F0029721E030E027
:10409000D816190619F010F030E020E0232B79F43F
:1040A00082E090E0F801918380838EEF9FEFDF91B3
:1040B000CF911F910F91FF90EF90DF900895EF281F
:1040C00041F482E090E0F8019183808384EF9FEFD8
:1040D000EECFF9800E945D144F2D50E0BE016E5F5F
:1040E0007F4F0E946B3689810E94CC1481E090E062
:1040F000F8019183808390E080E0D9CF8AEE9FE140
:104100009093040480930304089580910304909194
:10411000040408950895FC01118210829383828320
:104120000895DB011D921C92DC011296ED91FC9129
:1041300013977183608313967C936E9312970895FF
:10414000FC0180819181DB018D939C93A081B181E1
:10415000109741F08D919C9191838083892B11F46C
:10416000F383E2830895FC0180819181DB018D93CB
:104170009C93892B11F47383628371836083089508
:10418000FC0111821082938382830895CF93DF9381
:104190001F921F92CDB7DEB71A821982F894BE0122
:1041A0006F5F7F4F8AE094E0CBDF89819A8100972F
:1041B00009F017D389819A81892B89F7BE016F5F36
:1041C0007F4F8EE094E0BCDF89819A81009709F0EF
:1041D00008D389819A81892B89F778940F900F9061
:1041E000DF91CF910895CF93DF931F921F92CDB7A8
:1041F000DEB71A821982F894BE016F5F7F4F86E0A6
:1042000094E09EDF89819A81009709F0EAD2898142
:104210009A81892B89F778940F900F90DF91CF9135
:10422000089581E0089590E080E00895EF92FF9274
:104230000F931F93CF93DF931F921F92CDB7DEB7DB
:104240001A8219828091050407EF1FEF8823A1F1DC
:10425000F894BE016F5F7F4F8EE094E071DF789439
:1042600089819A81EE24E394F12C892B51F4F894FE
:10427000BE016F5F7F4F8AE094E062DF7894F12C9B
:10428000E12C89819A810EEF1FEF0097A9F0FC01C4
:104290004281538164E070E076D68C01892B61F015
:1042A000F89469817A81C701880F991F880F991F37
:1042B000865F9B4F58DF7894C8010F900F90DF9175
:1042C000CF911F910F91FF90EF9008950F931F933F
:1042D000CF93DF9300D01F92CDB7DEB71C821B8235
:1042E0001A8219828091050407EF1FEF8823C1F01D
:1042F000AE014D5F5F4F64E070E0CE010196B6D62F
:104300008C01892B69F4E981FA818B819C819383EB
:104310008283F89469817A8186E094E002DF789460
:10432000C8010F900F900F900F90DF91CF911F91C8
:104330000F910895BBD7049608958F929F92AF92E4
:10434000BF92CF92DF92EF92FF920F931F93CF9382
:10435000DF931F921F92CDB7DEB71A821982BC017C
:104360006F5F7F4F6330710598F0AA24AA94BA2C2E
:10437000C5010F900F90DF91CF911F910F91FF908A
:10438000EF90DF90CF90BF90AF909F908F90089567
:104390004115510551F3480159018A016C01CADFE9
:1043A0008815990511F7E114F104F9F28E0D9F1D9E
:1043B000A816B906D0F2809105048823F1F0F8948C
:1043C000B501645071099701AE014F5F5F4FC8019D
:1043D0000496E1D65C01892B71F489819A81F801F8
:1043E00093838283C601880F991F880F991FB80194
:1043F000865F9B4F96DE7894BBCF87EFA82EBB24B9
:10440000BA94B6CFAF92BF92CF92DF92EF92FF9263
:104410000F931F93CF93DF931F921F92CDB7DEB7F9
:104420001A821982892B09F047C06115710509F4B8
:1044300043C04115510509F43FC02115310509F468
:104440003BC001151105C1F1809105048823B9F124
:1044500079016A015B01F894BE016F5F7F4F86E0CE
:1044600094E06EDE789489819A81009759F1DC019D
:1044700012966D917C91A8010496A6D68C01E981D3
:10448000FA81D501ED93FC93828193810496F60124
:10449000918380834FDFD7018D939C93C8010F9048
:1044A0000F90DF91CF911F910F91FF90EF90DF90D0
:1044B000CF90BF90AF9008950FEF1FEFEFCF07EFB2
:1044C0001FEFECCF0EEF1FEFE9CFCF93DF93EC019F
:1044D000672B71F4F4D68C179D0760F0E7D624960D
:1044E000C80FD91FE6D68C0F9D1FDF91CF9108957D
:1044F000E3D6F1CF90E080E0F8CF0F931F93CF93F6
:10450000DF932091050421112BC08B01EC018AE07F
:1045100094E001DE8EE094E0FEDD86E094E0FBDDD9
:1045200097D00097C1F4CBD670E060E0CEDF47E6CD
:1045300052E062E070E081D1009769F480916702F7
:1045400090916802CED6B801CE0103D5009719F438
:1045500021E020930504DF91CF911F910F910895E1
:1045600084EF9FEFF8CFA8C6AAC6CF93DF93AAD651
:10457000EC01892B11F40ADE36DECE01DF91CF91FA
:104580000895CF93DF939ED6EC01892B09F4FEDDCD
:10459000CE01DF91CF9108958091670290916802DA
:1045A0000895CF93DF9380910504D0E0C0E0882385
:1045B000D1F09CD6EC01892BB1F4E8DD14DE8091BA
:1045C000670290916802E7D1E8D2EC01892B59F497
:1045D0008AE094E0D5DD8EE094E0D2DD86E094E0E0
:1045E000CFDD10920504CE01DF91CF910895EF92B7
:1045F000FF920F931F93CF93DF93EC017A018B010E
:104600000F5F1F4F0E9DA0010F9D500D1E9D500D61
:10461000112470E060E00E94743690E080E0F0E0E9
:10462000E0E02FEFE816F90639F4DF91CF911F9102
:104630000F91FF90EF9008951A8219822883309786
:1046400011F0D283C1830196FE01C00FD11FEACFC2
:10465000CF92DF92EF92FF920F931F93CF93DF934E
:1046600007EA15E00C7F43E050E069E672E08FE670
:1046700092E01CD489E6E82E82E0F82E9FE6C92E4F
:1046800092E0D92ECEE3D6E0D7014D915D917D0128
:10469000F601619171916F01198308835D834C83E9
:1046A0005B834A837F836E839B012F5F3F4F249FF1
:1046B000C001259F900D349F900D11249987888704
:1046C0000115110511F0C80192DF88859985080F41
:1046D000191F2A96FFE6EF16F2E0FF06A9F6E4E1BD
:1046E000F4E080E991E0DF019C011D92215030400F
:1046F000E1F7109213041092120410925D061092CA
:104700005C06109261061092600610925F0610928D
:104710005E06109263061092620610926506109271
:104720006406109267061092660610926B0610924D
:104730006A06109269061092680610926D06109231
:104740006C0610926F0610926E0610923B06109245
:104750003A0610923D0610923C0690E080E0DF9110
:10476000CF911F910F91FF90EF90DF90CF90089520
:104770000097F1F0F894AFE6B2E0EEE3F6E030E057
:1047800020E04D915D9148175907A8F0428153816F
:104790004115510581F08AE0829FF001839FF00D61
:1047A0001124E25CF94F80819181009759F478944B
:1047B00090E080E008952F5F3F4F3A962330310517
:1047C00001F7F5CFDC0111966D917C9171836083C7
:1047D0004150510953834283FC012193CF017894C6
:1047E0000895009749F1DC018E91853041F4E09104
:1047F0003C06F0913D063097F9F0CD0119948530D3
:10480000D8F4282F30E0F8948FEF8C938AE0829FC1
:10481000F001839FF00D1124E25CF94F80819181BA
:1048200012969C938E931197B183A083828193817A
:1048300001969383828378940895CF92DF92EF92CA
:10484000FF920F931F93CF93DF939C0187E194E036
:104850008C7F4115510509F49BC02115310509F4E0
:1048600097C06115710509F493C07A01AB01B901D4
:104870006D5F7F4F6C7F9B012F5F3F4F249F8001B7
:10488000259F100D349F100D1124F89420915C0683
:1048900030915D06232B59F4209164063091650612
:1048A0002115310569F12017310708F058C0209112
:1048B000660630916706232B91F4209164063091AF
:1048C0006506820F931F20916E0630916F062115A9
:1048D000310509F441C02017310708F056C078941B
:1048E000CFEFDFEF86EF9FEFF701D183C083DF913A
:1048F000CF911F910F91FF90EF90DF90CF9008958F
:10490000C3E0D0E0C0901204D09013042DE831E051
:104910002C193D092017310710F32AE02C9FF001D4
:104920002D9FF00D1124E25CF94F91838083558314
:10493000448353834283778366831187008700977C
:1049400009F055DE0C0D1D1D109313040093120485
:10495000789490E080E0C8CFC4E0D0E0D3CFC3E04B
:10496000D0E02AE02C9FF0012D9FF00D1124E25C95
:10497000F94F9183808355834483538342837783A4
:104980006683009729F333DEE3CFC4E0D0E0E9CFBC
:104990008FEF9FEFACCF9C010397029708F069C09F
:1049A000F89484E09AE0482F50E0241735070CF47F
:1049B0004DC091E08AE0829FF001839FF00D1124A9
:1049C000E25CF94F118210821582148213821282E6
:1049D000178216829923B1F180915C0690915D0651
:1049E000892BA9F4209164063091650621153105C3
:1049F00071F08091120490911304821B930B909399
:104A0000130480931204109265061092640680913C
:104A1000660690916706892BA9F420916E06309165
:104A20006F062115310571F08091120490911304E5
:104A3000821B930B909313048093120410926F06C1
:104A400010926E06789490E080E00895949FF001B3
:104A5000959FF00D1124E25CF94F40815181452B67
:104A600031F440855185452B11F481509CCF90E065
:104A7000A1CF8FEF9FEF08954115510549F10097A0
:104A800039F16115710521F1F89420913A063091C0
:104A90003B06232BB9F420913C0630913D06232B95
:104AA00089F490933B0680933A0670933D06609399
:104AB0003C06789425E030E090E080E0FA01318314
:104AC0002083089578942FEF3FEF86EF9FEFF6CF86
:104AD0008FEF9FEF0895059769F4F89410923B06C5
:104AE00010923A0610923D0610923C06789490E09F
:104AF00080E008958FEF9FEF08956115710519F417
:104B0000F0E0E0E011C08530910581F4E0913A06D3
:104B1000F0913B063097A1F3CB01019619950097D0
:104B200079F3FC0185E08193CF0108959C01235026
:104B300031092230310520F72AE0289FD001299F32
:104B4000B00D1124A25CB94F2D913C911197232BEC
:104B5000B9F216962D913C9117972617370780F2D8
:104B6000F89412962D913C9113972115310529F057
:104B7000ED91FC911197309711F47894C1CF418158
:104B8000528111965C934E932150310913963C93B8
:104B90002E93129781937894C7CFE4EAF5E086E9E3
:104BA000DF011D928A95E9F7E4E1F4E080E991E004
:104BB000DF019C011D9221503040E1F71092130457
:104BC00010921204EEE3F6E082E3DF011D928A9573
:104BD000E9F7EAE3F6E084E0DF011D928A95E9F760
:104BE00090E080E00895CF93DF93C0917502D0915B
:104BF0007602CF3FDC0759F460D49093760280931D
:104C0000750297FF09C0D0937602C093750284EFB6
:104C10009FEFDF91CF91089590E080E0FACF82304E
:104C2000910528F48093700690E080E008958FEF5E
:104C30009FEF08954F925F926F927F92AF92BF92D3
:104C4000CF92DF92EF92FF920F931F93CF93DF9358
:104C50001F921F92CDB7DEB71A821982009709F40E
:104C600079C06115710509F475C020917502309104
:104C7000760207EF1FEF2F3F3F4F09F445C06B014E
:104C80005C01412C512C3201F12CE12C10E000E0B0
:104C90009E012F5F3F4FA6014E195F09B5016E0DB2
:104CA0007F1D809175029091760269D4892B09F05D
:104CB0004BC089819A81009741F4E114F10429F4F1
:104CC00020917006222309F442C0E80EF91EEC146C
:104CD000FD04D0F480E8481684E858068EE16806A2
:104CE000710420F560E070E0CB010E94A9312AE058
:104CF000420E511C611C711C0A3F4FEF140721F03A
:104D0000043F8FEF1807A1F4C8010F900F90DF91B7
:104D1000CF911F910F91FF90EF90DF90CF90BF90B8
:104D2000AF907F906F905F904F90089501EF1FEFCD
:104D300081E090E0013F2FEF120711F090E080E05A
:104D4000892B09F4A5CFE0CF04EF1FEFDDCF0AEFE9
:104D50001FEFDACF0FEF1FEFD7CF4F925F926F9217
:104D60007F92AF92BF92CF92DF92EF92FF920F931A
:104D70001F93CF93DF931F921F92CDB7DEB71A8296
:104D80001982009709F479C06115710509F475C09D
:104D9000209175023091760207EF1FEF2F3F3F4FB2
:104DA00009F445C06B015C01412C512C3201F12CFE
:104DB000E12C10E000E09E012F5F3F4FA6014E194D
:104DC0005F09B5016E0D7F1D80917502909176028D
:104DD0008BD3892B09F04BC089819A81009741F4CC
:104DE000E114F10429F420917006222309F442C051
:104DF000E80EF91EEC14FD04D0F480E4481682E4B9
:104E000058068FE06806710420F560E070E0CB0181
:104E10000E94A9312AE0420E511C611C711C0E3FF8
:104E20004FEF140721F0043F8FEF1807A1F4C801DA
:104E30000F900F90DF91CF911F910F91FF90EF9006
:104E4000DF90CF90BF90AF907F906F905F904F902A
:104E5000089502EF1FEF81E090E0023F2FEF12076D
:104E600011F090E080E0892B09F4A5CFE0CF04EFAA
:104E70001FEFDDCF0EEF1FEFDACF0FEF1FEFD7CF12
:104E800080917502909176028F3F980749F00DD37B
:104E9000892B49F48FEF9FEF9093760280937502F0
:104EA00090E080E0089584EF9FEF0895CF92DF9225
:104EB000EF92FF920F931F93CF93DF9321E0411561
:104EC000510509F020E04150510921112CC0DC01AD
:104ED000FB01D12CC12C21E022C03FEFC31AD30A21
:104EE0007D010D911D91E701EA80FB80E016F1063E
:104EF000A8F420813181E280F380F182E082338363
:104F00002283ED90FC9011979D0122503109E90117
:104F1000F982E88211961C930E9320E03296C41613
:104F2000D506D8F2D2CFDF91CF911F910F91FF908C
:104F3000EF90DF90CF900895FC01680F791F90E00B
:104F400080E0E617F70709F408952191820F911D7B
:104F5000F8CF20917106211113C045DE009791F41E
:104F600010927706109276061092750610927406CB
:104F7000109273061092720621E020937106089534
:104F800084EF9FEF0895AF92BF92CF92DF92EF929E
:104F9000FF920F931F93CF93DF93009709F460C0A4
:104FA0004630510508F45CC020917106C7EFDFEF71
:104FB000222309F449C08C01060F171FF801C08095
:104FC000D180C114D10409F44EC096012A5F3F4F2D
:104FD0004217530708F447C07C01809176069091F0
:104FE000770693838283B6016C5F7F4F5801A60ECC
:104FF000B71EC801A1DFF5019183808364E070E0F2
:10500000C80118DEEC01892BF9F481E090E007DE9D
:10501000B601C80104960EDEEC01892B91F462E022
:1050200070E0C50107DEEC01892B59F4C701D9DB1B
:1050300080917606909177060196909377068093FB
:10504000760690E080E0EBDDCE01DF91CF911F91FD
:105050000F91FF90EF90DF90CF90BF90AF900895A9
:10506000CFEFDFEFF1CFC9EFDFEFEECF6F927F929F
:105070008F929F92AF92BF92CF92DF92EF92FF9268
:105080000F931F93CF93DF9300D01F92CDB7DEB75E
:10509000009709F47AC04115510509F476C02091B2
:1050A000710607EF1FEF222309F44DC03A017B017F
:1050B0005C0164E070E0CE0101964FDE8C01892B2B
:1050C00009F041C009811A810115110509F45AC07E
:1050D000480186E0880E911CB701680D791D80910A
:1050E00077029091780209DD6C01009709F450C0B5
:1050F000A70170E060E00E94743689819A81AB81DB
:10510000BC81EC0CFD1CF70181939193A193B193A9
:105110007F0181E090E083DDB801C7011EDE892BAD
:1051200031F562E070E0C701800F911F16DE8C013F
:10513000892BE9F490E080E072DDF501D182C08234
:10514000F30191828082C8010F900F900F900F9011
:10515000DF91CF911F910F91FF90EF90DF90CF9053
:10516000BF90AF909F908F907F906F90089590E048
:1051700080E055DDF50111821082F3011182108269
:10518000C6012FDB09EF1FEFDECF0FEF1FEFDBCFE5
:1051900006EF1FEFD8CF0097A1F04115510589F018
:1051A0002115310571F0F90136966E177F0748F029
:1051B000DC012D933C93DA01ED93FC9390E080E0C9
:1051C00008958FEF9FEF0895AF92BF92CF92DF9235
:1051D000EF92FF920F931F93CF93DF93009709F401
:1051E0005FC04115510509F45BC06530710508F4D5
:1051F00057C020917106C7EFDFEF222391F1DC0148
:10520000CD90DC9011971296ED91FC9196012A5F5A
:105210003F4FC9EFDFEF2617370719F5C091720628
:10522000D0917306209749F521E030E03093730662
:10523000209372067A018C01F0937506E093740650
:105240005601B4E0AB0EB11CB50176DE0A0D1B1D94
:10525000F801208131818217930729F5D701CD927A
:10526000DC92CE01DF91CF911F910F91FF90EF90D3
:10527000DF90CF90BF90AF90089520917406309149
:1052800075062F5F3F4FCCEFDFEFE217F30790F289
:10529000CBEFDFEF2E173F0768F2D0E0C0E0CACFB8
:1052A000CFEFDFEFDECFC3EFDFEFDBCF84E090E0C7
:1052B000089582E090E008958CEF9FEF089580E2DA
:1052C00090E0089510927706109276061092750677
:1052D00010927406109273061092720690E080E0AD
:1052E00008959093780280937702089580917106D3
:1052F000882391F0C5DD009789F41092770610920B
:10530000760610927506109274061092730610922B
:10531000720610927106089590E080E0089500975B
:1053200049F06115710531F0FC0111821082FB0119
:10533000118210820895F3CF089526E030E040E80E
:1053400055E260E070E090E080E000C010927906E5
:10535000109278068930910508F03BC0FC0188273F
:10536000EB54F64D8F4F0C944A36BE29C829D129EB
:10537000DA29E329EA29ED29F029F62981E090E0EC
:10538000909379068093780687E896E00C944733EB
:1053900082E090E0909379068093780684E297E02B
:1053A000F5CF84E090E0909379068093780681ECC5
:1053B00097E0ECCF88E090E09093790680937806B0
:1053C0008EE598E0E3CF80E190E0909379068093BA
:1053D0007806089580E290E0F8CF80E490E0F5CF81
:1053E00080E890E090937906809378068091780623
:1053F000909179069160E9CF1F920F920FB60F92AC
:1054000011240BB60F922F933F934F935F936F939B
:105410007F938F939F93AF93BF93EF93FF9384E218
:105420009FEF9093250180932401BDD0FF91EF91D0
:10543000BF91AF919F918F917F916F915F914F91AC
:105440003F912F910F900BBE0F900FBE0F901F90AA
:10545000189584E29FEF9093250180932401A3E7A0
:10546000B0E08C918E7F8C93E0E2F1E080818C7FC4
:105470008083E1E2F1E08081877E808380818260A9
:10548000808380818A7F80838C9181608C93089552
:10549000E3E7F0E0808190819E7F908381700895A2
:1054A00081E0089510927A06089568EE73E080E036
:1054B00090E04FD790E080E0089526E030E040E0B3
:1054C00050E16EE070E090E080E040DF87E896E039
:1054D0000E947D32892B29F087E896E00E9497325E
:1054E000F5CF90E080E00895CF92DF92EF92FF92A7
:1054F0000F931F93CF93DF936B017A01E901198218
:10550000188287E896E0F9D7892B71F18601CC24BF
:10551000C39482E0D82E80917A06811111C087E869
:1055200096E00E9497320297B1F7C0927A06F8018E
:10553000D1928F0188819981019699838883EBCFDD
:10554000888199818E159F0578F487E896E0EFD7DA
:105550008F3F9807A9F3F80181938F018881998182
:10556000019699838883ECCF90E080E0DF91CF9122
:105570001F910F91FF90EF90DF90CF9008950F93C0
:105580001F93CF93DF93EA01890187E896E00E9499
:10559000D735F801D183C08390E080E0DF91CF91CF
:1055A0001F910F910895CF92DF92EF92FF92809119
:1055B0007B0691E0980F90937B06882369F021E0A9
:1055C00030E030937D0620937C0680937B06FF902D
:1055D000EF90DF90CF9008957894E0918A02F09157
:1055E0008B02C688D788E08CF18C0E949908B7019D
:1055F000A60190E080E00E94DD03F89480917B0694
:105600008150E3CF0F931F93CF93DF931092420902
:1056100010924109D4D691DEC0918A02D0918B02BA
:10562000198218826FEF7FEFCB010E94630470E054
:1056300060E090E080E00E94DD02009709F03AC04F
:105640000E94540AF89478948A819B81BC01685F17
:105650007F4F0E94E002892B59F46FEF7FEFCB015F
:105660000E9472030E945D04882311F081E08E8FF6
:10567000F894EFDE0E946004882311F080E008C0F7
:105680000E945D048111FACF81E09E8D9111F6CFC9
:105690008093410978940E94AA118C01789480919A
:1056A000410981110CC00E94DA0A0E944104F89459
:1056B00090E080E0DF91CF911F910F9108950E94BB
:1056C0003E040E9460048823E1F081E08093420957
:1056D0009091420981E0911180E08093410980918D
:1056E00042098111D5DE0130110529F40E94AA1169
:1056F000892B09F4D7DE0E94AA118C01D1DE1CDEB1
:10570000CECF0E945D048111E0CF81E09E8D91118A
:10571000DDCF80E0DBCF5058BB27AA270ED080C159
:1057200071D130F076D120F031F49F3F11F41EF4A6
:1057300066C10EF4E095E7FB33C1E92F82D180F317
:10574000BA17620773078407950718F071F49EF57E
:10575000B1C10EF4E0950B2EBA2FA02D0B01B901AB
:1057600090010C01CA01A0011124FF27591B99F0D7
:10577000593F50F4503E68F11A16F040A22F232FE3
:10578000342F4427585FF3CF469537952795A79533
:10579000F0405395C9F77EF41F16BA0B620B730BDA
:1057A000840BBAF09150A1F0FF0FBB1F661F771F4B
:1057B000881FC2F70EC0BA0F621F731F841F48F400
:1057C000879577956795B795F7959E3F08F0B3CF86
:1057D0009395880F08F09927EE0F97958795089570
:1057E000BBD008F481E008950CD01AC112D140F06A
:1057F00009D130F021F45F3F19F0D2C051115BC1E3
:10580000FEC01FD198F39923C9F35523B1F3951B1B
:10581000550BBB27AA2762177307840738F09F5FD1
:105820005F4F220F331F441FAA1FA9F333D00E2E40
:105830003AF0E0E830D091505040E695001CCAF7AD
:1058400029D0FE2F27D0660F771F881FBB1F261772
:1058500037074807AB07B0E809F0BB0B802DBF0145
:10586000FF2793585F4F2AF09E3F510568F098C07C
:1058700022C15F3FECF3983EDCF386957795679500
:10588000B795F7959F5FC9F7880F911D96958795F6
:1058900097F90895E1E0660F771F881FBB1F621715
:1058A00073078407BA0720F0621B730B840BBA0BD3
:1058B000EE1F88F7E0950895E89409C097FB3EF441
:1058C00090958095709561957F4F8F4F9F4F99234D
:1058D000A9F0F92F96E9BB279395F69587957795CB
:1058E0006795B795F111F8CFFAF4BB0F11F460FF8B
:1058F0001BC06F5F7F4F8F4F9F4F16C0882311F0E3
:1059000096E911C0772321F09EE8872F762F05C0F6
:10591000662371F096E8862F70E060E02AF09A9591
:10592000660F771F881FDAF7880F9695879597F986
:105930000895A9D080F09F3740F491110EF0BBC0BC
:1059400060E070E080E89FEB089526F41B16611D6F
:10595000711D811D2BC045C0990F0008550FAA0B62
:10596000E0E8FEEF16161706E807F907C0F0121672
:105970001306E407F50798F0621B730B840B950B75
:1059800039F40A2661F0232B242B252B21F40895CA
:105990000A2609F4A140A6958FEF811D811D089567
:1059A00097F99F6780E870E060E00895882371F4BC
:1059B000772321F09850872B762F07C0662311F4A8
:1059C00099270DC09051862B70E060E02AF09A95DF
:1059D000660F771F881FDAF7880F9695879597F9D6
:1059E00008959F3F31F0915020F487957795679502
:1059F000B795880F911D9695879597F908959FEF14
:105A000080EC089500240A94161617061806090655
:105A1000089500240A941216130614060506089524
:105A2000092E0394000C11F4882352F0BB0F40F4AC
:105A3000BF2B11F460FF04C06F5F7F4F8F4F9F4FEC
:105A4000089557FD9058440F551F59F05F3F71F06E
:105A50004795880F97FB991F61F09F3F79F08795D5
:105A60000895121613061406551FF2CF4695F1DF5E
:105A700008C0161617061806991FF1CF86957105EE
:105A8000610508940895E5DFA0F0BEE7B91788F432
:105A9000BB279F3860F41616B11D672F782F882713
:105AA000985FF7CF869577956795B11D9395963951
:105AB000C8F30895E894BB2766277727CB0197F9A9
:105AC00008954ADF08F48FEF08956ACF8ACFC1DFC7
:105AD000E8F39923D9F3940F511DBBF39150504033
